:100000000C942A000C9447000C9447000C94470071
:100010000C9447000C9447000C9447000C94470044
:100020000C9447000C9447000C9447000C94470034
:100030000C9447000C9447000C9447000C94470024
:100040000C9447000C9447000C9447000C94470014
:100050000C94470011241FBECFE5D4E0DEBFCDBF16
:1000600010E0A0E6B0E0EAE7F1E002C005900D92F2
:10007000A036B107D9F710E0A0E6B0E001C01D92AC
:10008000AA36B107E1F70E9449000C94BB000C941A
:100090000000EF92FF920F931F93CF93DF938FEFA8
:1000A0008ABB81BB84BB60EDE62E67E0F62E35E0AF
:1000B00000E010E0C1E0D0E0E0E0F0E016C0CF01E9
:1000C0006AE070E00E94940062BB22B3CF016AE054
:1000D00070E00E94940054E0880F991F5A95E1F750
:1000E000282B22BBC7010197F1F73196EC33F105BC
:1000F00031F735BB25B3CE016AE070E00E94940071
:1001000044E0880F991F4A95E1F7282B25BBC701CA
:100110000197F1F72196CC33D10571F60F5F1F4F90
:100120000831110529F2C6CF97FB092E07260AD000
:1001300077FD04D00CD006D000201AF4709561959C
:100140007F4F0895F6F7909581959F4F0895AA1BCC
:10015000BB1B51E107C0AA1FBB1FA617B70710F0B2
:10016000A61BB70B881F991F5A95A9F780959095E4
:0A017000BC01CD010895F894FFCF03
:00000001FF
